{
	"Voting.sol": {
		"voting": {
			"abi": [
				{
					"inputs": [],
					"stateMutability": "nonpayable",
					"type": "constructor"
				},
				{
					"inputs": [],
					"name": "Candidate1votes",
					"outputs": [
						{
							"internalType": "uint256",
							"name": "",
							"type": "uint256"
						}
					],
					"stateMutability": "view",
					"type": "function"
				},
				{
					"inputs": [],
					"name": "Candidate2votes",
					"outputs": [
						{
							"internalType": "uint256",
							"name": "",
							"type": "uint256"
						}
					],
					"stateMutability": "view",
					"type": "function"
				},
				{
					"inputs": [],
					"name": "admin",
					"outputs": [
						{
							"internalType": "address",
							"name": "",
							"type": "address"
						}
					],
					"stateMutability": "view",
					"type": "function"
				},
				{
					"inputs": [],
					"name": "getVotes",
					"outputs": [
						{
							"internalType": "uint256",
							"name": "",
							"type": "uint256"
						},
						{
							"internalType": "uint256",
							"name": "",
							"type": "uint256"
						}
					],
					"stateMutability": "view",
					"type": "function"
				},
				{
					"inputs": [
						{
							"internalType": "address",
							"name": "",
							"type": "address"
						}
					],
					"name": "hasVoted",
					"outputs": [
						{
							"internalType": "bool",
							"name": "",
							"type": "bool"
						}
					],
					"stateMutability": "view",
					"type": "function"
				},
				{
					"inputs": [
						{
							"internalType": "uint256",
							"name": "candidateId",
							"type": "uint256"
						}
					],
					"name": "vote",
					"outputs": [],
					"stateMutability": "nonpayable",
					"type": "function"
				},
				{
					"inputs": [],
					"name": "votingOn",
					"outputs": [
						{
							"internalType": "bool",
							"name": "",
							"type": "bool"
						}
					],
					"stateMutability": "view",
					"type": "function"
				},
				{
					"inputs": [
						{
							"internalType": "bool",
							"name": "status",
							"type": "bool"
						}
					],
					"name": "votingStatus",
					"outputs": [],
					"stateMutability": "nonpayable",
					"type": "function"
				}
			],
			"devdoc": {
				"kind": "dev",
				"methods": {},
				"version": 1
			},
			"evm": {
				"assembly": "    /* \"Voting.sol\":151:1217  contract voting{... */\n  mstore(0x40, 0x80)\n    /* \"Voting.sol\":272:320  constructor(){... */\n  callvalue\n  dup1\n  iszero\n  tag_1\n  jumpi\n  revert(0x00, 0x00)\ntag_1:\n  pop\n    /* \"Voting.sol\":303:313  msg.sender */\n  caller\n    /* \"Voting.sol\":295:300  admin */\n  0x00\n  0x00\n    /* \"Voting.sol\":295:313  admin = msg.sender */\n  0x0100\n  exp\n  dup2\n  sload\n  dup2\n  0xffffffffffffffffffffffffffffffffffffffff\n  mul\n  not\n  and\n  swap1\n  dup4\n  0xffffffffffffffffffffffffffffffffffffffff\n  and\n  mul\n  or\n  swap1\n  sstore\n  pop\n    /* \"Voting.sol\":151:1217  contract voting{... */\n  dataSize(sub_0)\n  dup1\n  dataOffset(sub_0)\n  0x00\n  codecopy\n  0x00\n  return\nstop\n\nsub_0: assembly {\n        /* \"Voting.sol\":151:1217  contract voting{... */\n      mstore(0x40, 0x80)\n      callvalue\n      dup1\n      iszero\n      tag_1\n      jumpi\n      revert(0x00, 0x00)\n    tag_1:\n      pop\n      jumpi(tag_2, lt(calldatasize, 0x04))\n      shr(0xe0, calldataload(0x00))\n      dup1\n      0x233faf71\n      gt\n      tag_11\n      jumpi\n      dup1\n      0x233faf71\n      eq\n      tag_7\n      jumpi\n      dup1\n      0x45d6dc56\n      eq\n      tag_8\n      jumpi\n      dup1\n      0xcc6e9d12\n      eq\n      tag_9\n      jumpi\n      dup1\n      0xf851a440\n      eq\n      tag_10\n      jumpi\n      jump(tag_2)\n    tag_11:\n      dup1\n      0x0121b93f\n      eq\n      tag_3\n      jumpi\n      dup1\n      0x09eef43e\n      eq\n      tag_4\n      jumpi\n      dup1\n      0x0dc96015\n      eq\n      tag_5\n      jumpi\n      dup1\n      0x20949bb4\n      eq\n      tag_6\n      jumpi\n    tag_2:\n      revert(0x00, 0x00)\n        /* \"Voting.sol\":611:1113  function vote (uint candidateId) public {... */\n    tag_3:\n      tag_12\n      0x04\n      dup1\n      calldatasize\n      sub\n      dup2\n      add\n      swap1\n      tag_13\n      swap2\n      swap1\n      tag_14\n      jump\t// in\n    tag_13:\n      tag_15\n      jump\t// in\n    tag_12:\n      stop\n        /* \"Voting.sol\":392:430  mapping(address=>bool) public hasVoted */\n    tag_4:\n      tag_16\n      0x04\n      dup1\n      calldatasize\n      sub\n      dup2\n      add\n      swap1\n      tag_17\n      swap2\n      swap1\n      tag_18\n      jump\t// in\n    tag_17:\n      tag_19\n      jump\t// in\n    tag_16:\n      mload(0x40)\n      tag_20\n      swap2\n      swap1\n      tag_21\n      jump\t// in\n    tag_20:\n      mload(0x40)\n      dup1\n      swap2\n      sub\n      swap1\n      return\n        /* \"Voting.sol\":1114:1215  function getVotes() public view returns (uint, uint){... */\n    tag_5:\n      tag_22\n      tag_23\n      jump\t// in\n    tag_22:\n      mload(0x40)\n      tag_24\n      swap3\n      swap2\n      swap1\n      tag_25\n      jump\t// in\n    tag_24:\n      mload(0x40)\n      dup1\n      swap2\n      sub\n      swap1\n      return\n        /* \"Voting.sol\":198:218  bool public votingOn */\n    tag_6:\n      tag_26\n      tag_27\n      jump\t// in\n    tag_26:\n      mload(0x40)\n      tag_28\n      swap2\n      swap1\n      tag_21\n      jump\t// in\n    tag_28:\n      mload(0x40)\n      dup1\n      swap2\n      sub\n      swap1\n      return\n        /* \"Voting.sol\":326:353  uint public Candidate1votes */\n    tag_7:\n      tag_29\n      tag_30\n      jump\t// in\n    tag_29:\n      mload(0x40)\n      tag_31\n      swap2\n      swap1\n      tag_32\n      jump\t// in\n    tag_31:\n      mload(0x40)\n      dup1\n      swap2\n      sub\n      swap1\n      return\n        /* \"Voting.sol\":359:386  uint public Candidate2votes */\n    tag_8:\n      tag_33\n      tag_34\n      jump\t// in\n    tag_33:\n      mload(0x40)\n      tag_35\n      swap2\n      swap1\n      tag_32\n      jump\t// in\n    tag_35:\n      mload(0x40)\n      dup1\n      swap2\n      sub\n      swap1\n      return\n        /* \"Voting.sol\":437:609  function votingStatus(bool status) public {... */\n    tag_9:\n      tag_36\n      0x04\n      dup1\n      calldatasize\n      sub\n      dup2\n      add\n      swap1\n      tag_37\n      swap2\n      swap1\n      tag_38\n      jump\t// in\n    tag_37:\n      tag_39\n      jump\t// in\n    tag_36:\n      stop\n        /* \"Voting.sol\":172:192  address public admin */\n    tag_10:\n      tag_40\n      tag_41\n      jump\t// in\n    tag_40:\n      mload(0x40)\n      tag_42\n      swap2\n      swap1\n      tag_43\n      jump\t// in\n    tag_42:\n      mload(0x40)\n      dup1\n      swap2\n      sub\n      swap1\n      return\n        /* \"Voting.sol\":611:1113  function vote (uint candidateId) public {... */\n    tag_15:\n        /* \"Voting.sol\":677:681  true */\n      0x01\n        /* \"Voting.sol\":665:681  votingOn == true */\n      iszero\n      iszero\n        /* \"Voting.sol\":665:673  votingOn */\n      0x00\n      0x14\n      swap1\n      sload\n      swap1\n      0x0100\n      exp\n      swap1\n      div\n      0xff\n      and\n        /* \"Voting.sol\":665:681  votingOn == true */\n      iszero\n      iszero\n      eq\n        /* \"Voting.sol\":657:755  require(votingOn == true, \"Voting is currently closed. Please wait for the admin to switch it on\") */\n      tag_45\n      jumpi\n      mload(0x40)\n      0x08c379a000000000000000000000000000000000000000000000000000000000\n      dup2\n      mstore\n      0x04\n      add\n      tag_46\n      swap1\n      tag_47\n      jump\t// in\n    tag_46:\n      mload(0x40)\n      dup1\n      swap2\n      sub\n      swap1\n      revert\n    tag_45:\n        /* \"Voting.sol\":771:779  hasVoted */\n      0x03\n        /* \"Voting.sol\":771:791  hasVoted[msg.sender] */\n      0x00\n        /* \"Voting.sol\":780:790  msg.sender */\n      caller\n        /* \"Voting.sol\":771:791  hasVoted[msg.sender] */\n      0xffffffffffffffffffffffffffffffffffffffff\n      and\n      0xffffffffffffffffffffffffffffffffffffffff\n      and\n      dup2\n      mstore\n      0x20\n      add\n      swap1\n      dup2\n      mstore\n      0x20\n      add\n      0x00\n      keccak256\n      0x00\n      swap1\n      sload\n      swap1\n      0x0100\n      exp\n      swap1\n      div\n      0xff\n      and\n        /* \"Voting.sol\":770:791  !hasVoted[msg.sender] */\n      iszero\n        /* \"Voting.sol\":762:818  require(!hasVoted[msg.sender], \"You have already voted\") */\n      tag_48\n      jumpi\n      mload(0x40)\n      0x08c379a000000000000000000000000000000000000000000000000000000000\n      dup2\n      mstore\n      0x04\n      add\n      tag_49\n      swap1\n      tag_50\n      jump\t// in\n    tag_49:\n      mload(0x40)\n      dup1\n      swap2\n      sub\n      swap1\n      revert\n    tag_48:\n        /* \"Voting.sol\":845:846  1 */\n      0x01\n        /* \"Voting.sol\":832:843  candidateId */\n      dup2\n        /* \"Voting.sol\":832:846  candidateId==1 */\n      eq\n        /* \"Voting.sol\":832:864  candidateId==1 || candidateId==2 */\n      dup1\n      tag_51\n      jumpi\n      pop\n        /* \"Voting.sol\":863:864  2 */\n      0x02\n        /* \"Voting.sol\":850:861  candidateId */\n      dup2\n        /* \"Voting.sol\":850:864  candidateId==2 */\n      eq\n        /* \"Voting.sol\":832:864  candidateId==1 || candidateId==2 */\n    tag_51:\n        /* \"Voting.sol\":824:903  require(candidateId==1 || candidateId==2, \"Invalid candidate Id, write 1 or 2\") */\n      tag_52\n      jumpi\n      mload(0x40)\n      0x08c379a000000000000000000000000000000000000000000000000000000000\n      dup2\n      mstore\n      0x04\n      add\n      tag_53\n      swap1\n      tag_54\n      jump\t// in\n    tag_53:\n      mload(0x40)\n      dup1\n      swap2\n      sub\n      swap1\n      revert\n    tag_52:\n        /* \"Voting.sol\":933:937  true */\n      0x01\n        /* \"Voting.sol\":910:918  hasVoted */\n      0x03\n        /* \"Voting.sol\":910:930  hasVoted[msg.sender] */\n      0x00\n        /* \"Voting.sol\":919:929  msg.sender */\n      caller\n        /* \"Voting.sol\":910:930  hasVoted[msg.sender] */\n      0xffffffffffffffffffffffffffffffffffffffff\n      and\n      0xffffffffffffffffffffffffffffffffffffffff\n      and\n      dup2\n      mstore\n      0x20\n      add\n      swap1\n      dup2\n      mstore\n      0x20\n      add\n      0x00\n      keccak256\n      0x00\n        /* \"Voting.sol\":910:937  hasVoted[msg.sender] = true */\n      0x0100\n      exp\n      dup2\n      sload\n      dup2\n      0xff\n      mul\n      not\n      and\n      swap1\n      dup4\n      iszero\n      iszero\n      mul\n      or\n      swap1\n      sstore\n      pop\n        /* \"Voting.sol\":1000:1001  1 */\n      0x01\n        /* \"Voting.sol\":987:998  candidateId */\n      dup2\n        /* \"Voting.sol\":987:1001  candidateId==1 */\n      sub\n        /* \"Voting.sol\":984:1111  if(candidateId==1){... */\n      tag_55\n      jumpi\n        /* \"Voting.sol\":1044:1045  1 */\n      0x01\n        /* \"Voting.sol\":1028:1043  Candidate1votes */\n      dup1\n      sload\n        /* \"Voting.sol\":1028:1045  Candidate1votes+1 */\n      tag_56\n      swap2\n      swap1\n      tag_57\n      jump\t// in\n    tag_56:\n        /* \"Voting.sol\":1012:1027  Candidate1votes */\n      0x01\n        /* \"Voting.sol\":1012:1045  Candidate1votes=Candidate1votes+1 */\n      dup2\n      swap1\n      sstore\n      pop\n        /* \"Voting.sol\":984:1111  if(candidateId==1){... */\n      jump(tag_58)\n    tag_55:\n        /* \"Voting.sol\":1103:1104  1 */\n      0x01\n        /* \"Voting.sol\":1087:1102  Candidate2votes */\n      sload(0x02)\n        /* \"Voting.sol\":1087:1104  Candidate2votes+1 */\n      tag_59\n      swap2\n      swap1\n      tag_57\n      jump\t// in\n    tag_59:\n        /* \"Voting.sol\":1071:1086  Candidate2votes */\n      0x02\n        /* \"Voting.sol\":1071:1104  Candidate2votes=Candidate2votes+1 */\n      dup2\n      swap1\n      sstore\n      pop\n        /* \"Voting.sol\":984:1111  if(candidateId==1){... */\n    tag_58:\n        /* \"Voting.sol\":611:1113  function vote (uint candidateId) public {... */\n      pop\n      jump\t// out\n        /* \"Voting.sol\":392:430  mapping(address=>bool) public hasVoted */\n    tag_19:\n      mstore(0x20, 0x03)\n      dup1\n      0x00\n      mstore\n      keccak256(0x00, 0x40)\n      0x00\n      swap2\n      pop\n      sload\n      swap1\n      0x0100\n      exp\n      swap1\n      div\n      0xff\n      and\n      dup2\n      jump\t// out\n        /* \"Voting.sol\":1114:1215  function getVotes() public view returns (uint, uint){... */\n    tag_23:\n        /* \"Voting.sol\":1155:1159  uint */\n      0x00\n        /* \"Voting.sol\":1161:1165  uint */\n      0x00\n        /* \"Voting.sol\":1179:1194  Candidate1votes */\n      sload(0x01)\n        /* \"Voting.sol\":1195:1210  Candidate2votes */\n      sload(0x02)\n        /* \"Voting.sol\":1172:1211  return(Candidate1votes,Candidate2votes) */\n      swap2\n      pop\n      swap2\n      pop\n        /* \"Voting.sol\":1114:1215  function getVotes() public view returns (uint, uint){... */\n      swap1\n      swap2\n      jump\t// out\n        /* \"Voting.sol\":198:218  bool public votingOn */\n    tag_27:\n      0x00\n      0x14\n      swap1\n      sload\n      swap1\n      0x0100\n      exp\n      swap1\n      div\n      0xff\n      and\n      dup2\n      jump\t// out\n        /* \"Voting.sol\":326:353  uint public Candidate1votes */\n    tag_30:\n      sload(0x01)\n      dup2\n      jump\t// out\n        /* \"Voting.sol\":359:386  uint public Candidate2votes */\n    tag_34:\n      sload(0x02)\n      dup2\n      jump\t// out\n        /* \"Voting.sol\":437:609  function votingStatus(bool status) public {... */\n    tag_39:\n        /* \"Voting.sol\":511:516  admin */\n      0x00\n      0x00\n      swap1\n      sload\n      swap1\n      0x0100\n      exp\n      swap1\n      div\n      0xffffffffffffffffffffffffffffffffffffffff\n      and\n        /* \"Voting.sol\":497:516  msg.sender == admin */\n      0xffffffffffffffffffffffffffffffffffffffff\n      and\n        /* \"Voting.sol\":497:507  msg.sender */\n      caller\n        /* \"Voting.sol\":497:516  msg.sender == admin */\n      0xffffffffffffffffffffffffffffffffffffffff\n      and\n      eq\n        /* \"Voting.sol\":489:575  require(msg.sender == admin, \"The administrator can only change the status of voting\") */\n      tag_62\n      jumpi\n      mload(0x40)\n      0x08c379a000000000000000000000000000000000000000000000000000000000\n      dup2\n      mstore\n      0x04\n      add\n      tag_63\n      swap1\n      tag_64\n      jump\t// in\n    tag_63:\n      mload(0x40)\n      dup1\n      swap2\n      sub\n      swap1\n      revert\n    tag_62:\n        /* \"Voting.sol\":596:602  status */\n      dup1\n        /* \"Voting.sol\":585:593  votingOn */\n      0x00\n      0x14\n        /* \"Voting.sol\":585:602  votingOn = status */\n      0x0100\n      exp\n      dup2\n      sload\n      dup2\n      0xff\n      mul\n      not\n      and\n      swap1\n      dup4\n      iszero\n      iszero\n      mul\n      or\n      swap1\n      sstore\n      pop\n        /* \"Voting.sol\":437:609  function votingStatus(bool status) public {... */\n      pop\n      jump\t// out\n        /* \"Voting.sol\":172:192  address public admin */\n    tag_41:\n      0x00\n      0x00\n      swap1\n      sload\n      swap1\n      0x0100\n      exp\n      swap1\n      div\n      0xffffffffffffffffffffffffffffffffffffffff\n      and\n      dup2\n      jump\t// out\n        /* \"#utility.yul\":88:205   */\n    tag_66:\n        /* \"#utility.yul\":197:198   */\n      0x00\n        /* \"#utility.yul\":194:195   */\n      0x00\n        /* \"#utility.yul\":187:199   */\n      revert\n        /* \"#utility.yul\":334:411   */\n    tag_68:\n        /* \"#utility.yul\":371:378   */\n      0x00\n        /* \"#utility.yul\":400:405   */\n      dup2\n        /* \"#utility.yul\":389:405   */\n      swap1\n      pop\n        /* \"#utility.yul\":334:411   */\n      swap2\n      swap1\n      pop\n      jump\t// out\n        /* \"#utility.yul\":417:539   */\n    tag_69:\n        /* \"#utility.yul\":490:514   */\n      tag_97\n        /* \"#utility.yul\":508:513   */\n      dup2\n        /* \"#utility.yul\":490:514   */\n      tag_68\n      jump\t// in\n    tag_97:\n        /* \"#utility.yul\":483:488   */\n      dup2\n        /* \"#utility.yul\":480:515   */\n      eq\n        /* \"#utility.yul\":470:533   */\n      tag_98\n      jumpi\n        /* \"#utility.yul\":529:530   */\n      0x00\n        /* \"#utility.yul\":526:527   */\n      0x00\n        /* \"#utility.yul\":519:531   */\n      revert\n        /* \"#utility.yul\":470:533   */\n    tag_98:\n        /* \"#utility.yul\":417:539   */\n      pop\n      jump\t// out\n        /* \"#utility.yul\":545:684   */\n    tag_70:\n        /* \"#utility.yul\":591:596   */\n      0x00\n        /* \"#utility.yul\":629:635   */\n      dup2\n        /* \"#utility.yul\":616:636   */\n      calldataload\n        /* \"#utility.yul\":607:636   */\n      swap1\n      pop\n        /* \"#utility.yul\":645:678   */\n      tag_100\n        /* \"#utility.yul\":672:677   */\n      dup2\n        /* \"#utility.yul\":645:678   */\n      tag_69\n      jump\t// in\n    tag_100:\n        /* \"#utility.yul\":545:684   */\n      swap3\n      swap2\n      pop\n      pop\n      jump\t// out\n        /* \"#utility.yul\":690:1019   */\n    tag_14:\n        /* \"#utility.yul\":749:755   */\n      0x00\n        /* \"#utility.yul\":798:800   */\n      0x20\n        /* \"#utility.yul\":786:795   */\n      dup3\n        /* \"#utility.yul\":777:784   */\n      dup5\n        /* \"#utility.yul\":773:796   */\n      sub\n        /* \"#utility.yul\":769:801   */\n      slt\n        /* \"#utility.yul\":766:885   */\n      iszero\n      tag_102\n      jumpi\n        /* \"#utility.yul\":804:883   */\n      tag_103\n      tag_66\n      jump\t// in\n    tag_103:\n        /* \"#utility.yul\":766:885   */\n    tag_102:\n        /* \"#utility.yul\":924:925   */\n      0x00\n        /* \"#utility.yul\":949:1002   */\n      tag_104\n        /* \"#utility.yul\":994:1001   */\n      dup5\n        /* \"#utility.yul\":985:991   */\n      dup3\n        /* \"#utility.yul\":974:983   */\n      dup6\n        /* \"#utility.yul\":970:992   */\n      add\n        /* \"#utility.yul\":949:1002   */\n      tag_70\n      jump\t// in\n    tag_104:\n        /* \"#utility.yul\":939:1002   */\n      swap2\n      pop\n        /* \"#utility.yul\":895:1012   */\n      pop\n        /* \"#utility.yul\":690:1019   */\n      swap3\n      swap2\n      pop\n      pop\n      jump\t// out\n        /* \"#utility.yul\":1025:1151   */\n    tag_71:\n        /* \"#utility.yul\":1062:1069   */\n      0x00\n        /* \"#utility.yul\":1102:1144   */\n      0xffffffffffffffffffffffffffffffffffffffff\n        /* \"#utility.yul\":1095:1100   */\n      dup3\n        /* \"#utility.yul\":1091:1145   */\n      and\n        /* \"#utility.yul\":1080:1145   */\n      swap1\n      pop\n        /* \"#utility.yul\":1025:1151   */\n      swap2\n      swap1\n      pop\n      jump\t// out\n        /* \"#utility.yul\":1157:1253   */\n    tag_72:\n        /* \"#utility.yul\":1194:1201   */\n      0x00\n        /* \"#utility.yul\":1223:1247   */\n      tag_107\n        /* \"#utility.yul\":1241:1246   */\n      dup3\n        /* \"#utility.yul\":1223:1247   */\n      tag_71\n      jump\t// in\n    tag_107:\n        /* \"#utility.yul\":1212:1247   */\n      swap1\n      pop\n        /* \"#utility.yul\":1157:1253   */\n      swap2\n      swap1\n      pop\n      jump\t// out\n        /* \"#utility.yul\":1259:1381   */\n    tag_73:\n        /* \"#utility.yul\":1332:1356   */\n      tag_109\n        /* \"#utility.yul\":1350:1355   */\n      dup2\n        /* \"#utility.yul\":1332:1356   */\n      tag_72\n      jump\t// in\n    tag_109:\n        /* \"#utility.yul\":1325:1330   */\n      dup2\n        /* \"#utility.yul\":1322:1357   */\n      eq\n        /* \"#utility.yul\":1312:1375   */\n      tag_110\n      jumpi\n        /* \"#utility.yul\":1371:1372   */\n      0x00\n        /* \"#utility.yul\":1368:1369   */\n      0x00\n        /* \"#utility.yul\":1361:1373   */\n      revert\n        /* \"#utility.yul\":1312:1375   */\n    tag_110:\n        /* \"#utility.yul\":1259:1381   */\n      pop\n      jump\t// out\n        /* \"#utility.yul\":1387:1526   */\n    tag_74:\n        /* \"#utility.yul\":1433:1438   */\n      0x00\n        /* \"#utility.yul\":1471:1477   */\n      dup2\n        /* \"#utility.yul\":1458:1478   */\n      calldataload\n        /* \"#utility.yul\":1449:1478   */\n      swap1\n      pop\n        /* \"#utility.yul\":1487:1520   */\n      tag_112\n        /* \"#utility.yul\":1514:1519   */\n      dup2\n        /* \"#utility.yul\":1487:1520   */\n      tag_73\n      jump\t// in\n    tag_112:\n        /* \"#utility.yul\":1387:1526   */\n      swap3\n      swap2\n      pop\n      pop\n      jump\t// out\n        /* \"#utility.yul\":1532:1861   */\n    tag_18:\n        /* \"#utility.yul\":1591:1597   */\n      0x00\n        /* \"#utility.yul\":1640:1642   */\n      0x20\n        /* \"#utility.yul\":1628:1637   */\n      dup3\n        /* \"#utility.yul\":1619:1626   */\n      dup5\n        /* \"#utility.yul\":1615:1638   */\n      sub\n        /* \"#utility.yul\":1611:1643   */\n      slt\n        /* \"#utility.yul\":1608:1727   */\n      iszero\n      tag_114\n      jumpi\n        /* \"#utility.yul\":1646:1725   */\n      tag_115\n      tag_66\n      jump\t// in\n    tag_115:\n        /* \"#utility.yul\":1608:1727   */\n    tag_114:\n        /* \"#utility.yul\":1766:1767   */\n      0x00\n        /* \"#utility.yul\":1791:1844   */\n      tag_116\n        /* \"#utility.yul\":1836:1843   */\n      dup5\n        /* \"#utility.yul\":1827:1833   */\n      dup3\n        /* \"#utility.yul\":1816:1825   */\n      dup6\n        /* \"#utility.yul\":1812:1834   */\n      add\n        /* \"#utility.yul\":1791:1844   */\n      tag_74\n      jump\t// in\n    tag_116:\n        /* \"#utility.yul\":1781:1844   */\n      swap2\n      pop\n        /* \"#utility.yul\":1737:1854   */\n      pop\n        /* \"#utility.yul\":1532:1861   */\n      swap3\n      swap2\n      pop\n      pop\n      jump\t// out\n        /* \"#utility.yul\":1867:1957   */\n    tag_75:\n        /* \"#utility.yul\":1901:1908   */\n      0x00\n        /* \"#utility.yul\":1944:1949   */\n      dup2\n        /* \"#utility.yul\":1937:1950   */\n      iszero\n        /* \"#utility.yul\":1930:1951   */\n      iszero\n        /* \"#utility.yul\":1919:1951   */\n      swap1\n      pop\n        /* \"#utility.yul\":1867:1957   */\n      swap2\n      swap1\n      pop\n      jump\t// out\n        /* \"#utility.yul\":1963:2072   */\n    tag_76:\n        /* \"#utility.yul\":2044:2065   */\n      tag_119\n        /* \"#utility.yul\":2059:2064   */\n      dup2\n        /* \"#utility.yul\":2044:2065   */\n      tag_75\n      jump\t// in\n    tag_119:\n        /* \"#utility.yul\":2039:2042   */\n      dup3\n        /* \"#utility.yul\":2032:2066   */\n      mstore\n        /* \"#utility.yul\":1963:2072   */\n      pop\n      pop\n      jump\t// out\n        /* \"#utility.yul\":2078:2288   */\n    tag_21:\n        /* \"#utility.yul\":2165:2169   */\n      0x00\n        /* \"#utility.yul\":2203:2205   */\n      0x20\n        /* \"#utility.yul\":2192:2201   */\n      dup3\n        /* \"#utility.yul\":2188:2206   */\n      add\n        /* \"#utility.yul\":2180:2206   */\n      swap1\n      pop\n        /* \"#utility.yul\":2216:2281   */\n      tag_121\n        /* \"#utility.yul\":2278:2279   */\n      0x00\n        /* \"#utility.yul\":2267:2276   */\n      dup4\n        /* \"#utility.yul\":2263:2280   */\n      add\n        /* \"#utility.yul\":2254:2260   */\n      dup5\n        /* \"#utility.yul\":2216:2281   */\n      tag_76\n      jump\t// in\n    tag_121:\n        /* \"#utility.yul\":2078:2288   */\n      swap3\n      swap2\n      pop\n      pop\n      jump\t// out\n        /* \"#utility.yul\":2294:2412   */\n    tag_77:\n        /* \"#utility.yul\":2381:2405   */\n      tag_123\n        /* \"#utility.yul\":2399:2404   */\n      dup2\n        /* \"#utility.yul\":2381:2405   */\n      tag_68\n      jump\t// in\n    tag_123:\n        /* \"#utility.yul\":2376:2379   */\n      dup3\n        /* \"#utility.yul\":2369:2406   */\n      mstore\n        /* \"#utility.yul\":2294:2412   */\n      pop\n      pop\n      jump\t// out\n        /* \"#utility.yul\":2418:2750   */\n    tag_25:\n        /* \"#utility.yul\":2539:2543   */\n      0x00\n        /* \"#utility.yul\":2577:2579   */\n      0x40\n        /* \"#utility.yul\":2566:2575   */\n      dup3\n        /* \"#utility.yul\":2562:2580   */\n      add\n        /* \"#utility.yul\":2554:2580   */\n      swap1\n      pop\n        /* \"#utility.yul\":2590:2661   */\n      tag_125\n        /* \"#utility.yul\":2658:2659   */\n      0x00\n        /* \"#utility.yul\":2647:2656   */\n      dup4\n        /* \"#utility.yul\":2643:2660   */\n      add\n        /* \"#utility.yul\":2634:2640   */\n      dup6\n        /* \"#utility.yul\":2590:2661   */\n      tag_77\n      jump\t// in\n    tag_125:\n        /* \"#utility.yul\":2671:2743   */\n      tag_126\n        /* \"#utility.yul\":2739:2741   */\n      0x20\n        /* \"#utility.yul\":2728:2737   */\n      dup4\n        /* \"#utility.yul\":2724:2742   */\n      add\n        /* \"#utility.yul\":2715:2721   */\n      dup5\n        /* \"#utility.yul\":2671:2743   */\n      tag_77\n      jump\t// in\n    tag_126:\n        /* \"#utility.yul\":2418:2750   */\n      swap4\n      swap3\n      pop\n      pop\n      pop\n      jump\t// out\n        /* \"#utility.yul\":2756:2978   */\n    tag_32:\n        /* \"#utility.yul\":2849:2853   */\n      0x00\n        /* \"#utility.yul\":2887:2889   */\n      0x20\n        /* \"#utility.yul\":2876:2885   */\n      dup3\n        /* \"#utility.yul\":2872:2890   */\n      add\n        /* \"#utility.yul\":2864:2890   */\n      swap1\n      pop\n        /* \"#utility.yul\":2900:2971   */\n      tag_128\n        /* \"#utility.yul\":2968:2969   */\n      0x00\n        /* \"#utility.yul\":2957:2966   */\n      dup4\n        /* \"#utility.yul\":2953:2970   */\n      add\n        /* \"#utility.yul\":2944:2950   */\n      dup5\n        /* \"#utility.yul\":2900:2971   */\n      tag_77\n      jump\t// in\n    tag_128:\n        /* \"#utility.yul\":2756:2978   */\n      swap3\n      swap2\n      pop\n      pop\n      jump\t// out\n        /* \"#utility.yul\":2984:3100   */\n    tag_78:\n        /* \"#utility.yul\":3054:3075   */\n      tag_130\n        /* \"#utility.yul\":3069:3074   */\n      dup2\n        /* \"#utility.yul\":3054:3075   */\n      tag_75\n      jump\t// in\n    tag_130:\n        /* \"#utility.yul\":3047:3052   */\n      dup2\n        /* \"#utility.yul\":3044:3076   */\n      eq\n        /* \"#utility.yul\":3034:3094   */\n      tag_131\n      jumpi\n        /* \"#utility.yul\":3090:3091   */\n      0x00\n        /* \"#utility.yul\":3087:3088   */\n      0x00\n        /* \"#utility.yul\":3080:3092   */\n      revert\n        /* \"#utility.yul\":3034:3094   */\n    tag_131:\n        /* \"#utility.yul\":2984:3100   */\n      pop\n      jump\t// out\n        /* \"#utility.yul\":3106:3239   */\n    tag_79:\n        /* \"#utility.yul\":3149:3154   */\n      0x00\n        /* \"#utility.yul\":3187:3193   */\n      dup2\n        /* \"#utility.yul\":3174:3194   */\n      calldataload\n        /* \"#utility.yul\":3165:3194   */\n      swap1\n      pop\n        /* \"#utility.yul\":3203:3233   */\n      tag_133\n        /* \"#utility.yul\":3227:3232   */\n      dup2\n        /* \"#utility.yul\":3203:3233   */\n      tag_78\n      jump\t// in\n    tag_133:\n        /* \"#utility.yul\":3106:3239   */\n      swap3\n      swap2\n      pop\n      pop\n      jump\t// out\n        /* \"#utility.yul\":3245:3568   */\n    tag_38:\n        /* \"#utility.yul\":3301:3307   */\n      0x00\n        /* \"#utility.yul\":3350:3352   */\n      0x20\n        /* \"#utility.yul\":3338:3347   */\n      dup3\n        /* \"#utility.yul\":3329:3336   */\n      dup5\n        /* \"#utility.yul\":3325:3348   */\n      sub\n        /* \"#utility.yul\":3321:3353   */\n      slt\n        /* \"#utility.yul\":3318:3437   */\n      iszero\n      tag_135\n      jumpi\n        /* \"#utility.yul\":3356:3435   */\n      tag_136\n      tag_66\n      jump\t// in\n    tag_136:\n        /* \"#utility.yul\":3318:3437   */\n    tag_135:\n        /* \"#utility.yul\":3476:3477   */\n      0x00\n        /* \"#utility.yul\":3501:3551   */\n      tag_137\n        /* \"#utility.yul\":3543:3550   */\n      dup5\n        /* \"#utility.yul\":3534:3540   */\n      dup3\n        /* \"#utility.yul\":3523:3532   */\n      dup6\n        /* \"#utility.yul\":3519:3541   */\n      add\n        /* \"#utility.yul\":3501:3551   */\n      tag_79\n      jump\t// in\n    tag_137:\n        /* \"#utility.yul\":3491:3551   */\n      swap2\n      pop\n        /* \"#utility.yul\":3447:3561   */\n      pop\n        /* \"#utility.yul\":3245:3568   */\n      swap3\n      swap2\n      pop\n      pop\n      jump\t// out\n        /* \"#utility.yul\":3574:3692   */\n    tag_80:\n        /* \"#utility.yul\":3661:3685   */\n      tag_139\n        /* \"#utility.yul\":3679:3684   */\n      dup2\n        /* \"#utility.yul\":3661:3685   */\n      tag_72\n      jump\t// in\n    tag_139:\n        /* \"#utility.yul\":3656:3659   */\n      dup3\n        /* \"#utility.yul\":3649:3686   */\n      mstore\n        /* \"#utility.yul\":3574:3692   */\n      pop\n      pop\n      jump\t// out\n        /* \"#utility.yul\":3698:3920   */\n    tag_43:\n        /* \"#utility.yul\":3791:3795   */\n      0x00\n        /* \"#utility.yul\":3829:3831   */\n      0x20\n        /* \"#utility.yul\":3818:3827   */\n      dup3\n        /* \"#utility.yul\":3814:3832   */\n      add\n        /* \"#utility.yul\":3806:3832   */\n      swap1\n      pop\n        /* \"#utility.yul\":3842:3913   */\n      tag_141\n        /* \"#utility.yul\":3910:3911   */\n      0x00\n        /* \"#utility.yul\":3899:3908   */\n      dup4\n        /* \"#utility.yul\":3895:3912   */\n      add\n        /* \"#utility.yul\":3886:3892   */\n      dup5\n        /* \"#utility.yul\":3842:3913   */\n      tag_80\n      jump\t// in\n    tag_141:\n        /* \"#utility.yul\":3698:3920   */\n      swap3\n      swap2\n      pop\n      pop\n      jump\t// out\n        /* \"#utility.yul\":3926:4095   */\n    tag_81:\n        /* \"#utility.yul\":4010:4021   */\n      0x00\n        /* \"#utility.yul\":4044:4050   */\n      dup3\n        /* \"#utility.yul\":4039:4042   */\n      dup3\n        /* \"#utility.yul\":4032:4051   */\n      mstore\n        /* \"#utility.yul\":4084:4088   */\n      0x20\n        /* \"#utility.yul\":4079:4082   */\n      dup3\n        /* \"#utility.yul\":4075:4089   */\n      add\n        /* \"#utility.yul\":4060:4089   */\n      swap1\n      pop\n        /* \"#utility.yul\":3926:4095   */\n      swap3\n      swap2\n      pop\n      pop\n      jump\t// out\n        /* \"#utility.yul\":4101:4394   */\n    tag_82:\n        /* \"#utility.yul\":4241:4275   */\n      0x566f74696e672069732063757272656e746c7920636c6f7365642e20506c6561\n        /* \"#utility.yul\":4237:4238   */\n      0x00\n        /* \"#utility.yul\":4229:4235   */\n      dup3\n        /* \"#utility.yul\":4225:4239   */\n      add\n        /* \"#utility.yul\":4218:4276   */\n      mstore\n        /* \"#utility.yul\":4310:4344   */\n      0x7365207761697420666f72207468652061646d696e20746f2073776974636820\n        /* \"#utility.yul\":4305:4307   */\n      0x20\n        /* \"#utility.yul\":4297:4303   */\n      dup3\n        /* \"#utility.yul\":4293:4308   */\n      add\n        /* \"#utility.yul\":4286:4345   */\n      mstore\n        /* \"#utility.yul\":4379:4386   */\n      0x6974206f6e000000000000000000000000000000000000000000000000000000\n        /* \"#utility.yul\":4374:4376   */\n      0x40\n        /* \"#utility.yul\":4366:4372   */\n      dup3\n        /* \"#utility.yul\":4362:4377   */\n      add\n        /* \"#utility.yul\":4355:4387   */\n      mstore\n        /* \"#utility.yul\":4101:4394   */\n      pop\n      jump\t// out\n        /* \"#utility.yul\":4400:4766   */\n    tag_83:\n        /* \"#utility.yul\":4542:4545   */\n      0x00\n        /* \"#utility.yul\":4563:4630   */\n      tag_145\n        /* \"#utility.yul\":4627:4629   */\n      0x45\n        /* \"#utility.yul\":4622:4625   */\n      dup4\n        /* \"#utility.yul\":4563:4630   */\n      tag_81\n      jump\t// in\n    tag_145:\n        /* \"#utility.yul\":4556:4630   */\n      swap2\n      pop\n        /* \"#utility.yul\":4639:4732   */\n      tag_146\n        /* \"#utility.yul\":4728:4731   */\n      dup3\n        /* \"#utility.yul\":4639:4732   */\n      tag_82\n      jump\t// in\n    tag_146:\n        /* \"#utility.yul\":4757:4759   */\n      0x60\n        /* \"#utility.yul\":4752:4755   */\n      dup3\n        /* \"#utility.yul\":4748:4760   */\n      add\n        /* \"#utility.yul\":4741:4760   */\n      swap1\n      pop\n        /* \"#utility.yul\":4400:4766   */\n      swap2\n      swap1\n      pop\n      jump\t// out\n        /* \"#utility.yul\":4772:5191   */\n    tag_47:\n        /* \"#utility.yul\":4938:4942   */\n      0x00\n        /* \"#utility.yul\":4976:4978   */\n      0x20\n        /* \"#utility.yul\":4965:4974   */\n      dup3\n        /* \"#utility.yul\":4961:4979   */\n      add\n        /* \"#utility.yul\":4953:4979   */\n      swap1\n      pop\n        /* \"#utility.yul\":5025:5034   */\n      dup2\n        /* \"#utility.yul\":5019:5023   */\n      dup2\n        /* \"#utility.yul\":5015:5035   */\n      sub\n        /* \"#utility.yul\":5011:5012   */\n      0x00\n        /* \"#utility.yul\":5000:5009   */\n      dup4\n        /* \"#utility.yul\":4996:5013   */\n      add\n        /* \"#utility.yul\":4989:5036   */\n      mstore\n        /* \"#utility.yul\":5053:5184   */\n      tag_148\n        /* \"#utility.yul\":5179:5183   */\n      dup2\n        /* \"#utility.yul\":5053:5184   */\n      tag_83\n      jump\t// in\n    tag_148:\n        /* \"#utility.yul\":5045:5184   */\n      swap1\n      pop\n        /* \"#utility.yul\":4772:5191   */\n      swap2\n      swap1\n      pop\n      jump\t// out\n        /* \"#utility.yul\":5197:5369   */\n    tag_84:\n        /* \"#utility.yul\":5337:5361   */\n      0x596f75206861766520616c726561647920766f74656400000000000000000000\n        /* \"#utility.yul\":5333:5334   */\n      0x00\n        /* \"#utility.yul\":5325:5331   */\n      dup3\n        /* \"#utility.yul\":5321:5335   */\n      add\n        /* \"#utility.yul\":5314:5362   */\n      mstore\n        /* \"#utility.yul\":5197:5369   */\n      pop\n      jump\t// out\n        /* \"#utility.yul\":5375:5741   */\n    tag_85:\n        /* \"#utility.yul\":5517:5520   */\n      0x00\n        /* \"#utility.yul\":5538:5605   */\n      tag_151\n        /* \"#utility.yul\":5602:5604   */\n      0x16\n        /* \"#utility.yul\":5597:5600   */\n      dup4\n        /* \"#utility.yul\":5538:5605   */\n      tag_81\n      jump\t// in\n    tag_151:\n        /* \"#utility.yul\":5531:5605   */\n      swap2\n      pop\n        /* \"#utility.yul\":5614:5707   */\n      tag_152\n        /* \"#utility.yul\":5703:5706   */\n      dup3\n        /* \"#utility.yul\":5614:5707   */\n      tag_84\n      jump\t// in\n    tag_152:\n        /* \"#utility.yul\":5732:5734   */\n      0x20\n        /* \"#utility.yul\":5727:5730   */\n      dup3\n        /* \"#utility.yul\":5723:5735   */\n      add\n        /* \"#utility.yul\":5716:5735   */\n      swap1\n      pop\n        /* \"#utility.yul\":5375:5741   */\n      swap2\n      swap1\n      pop\n      jump\t// out\n        /* \"#utility.yul\":5747:6166   */\n    tag_50:\n        /* \"#utility.yul\":5913:5917   */\n      0x00\n        /* \"#utility.yul\":5951:5953   */\n      0x20\n        /* \"#utility.yul\":5940:5949   */\n      dup3\n        /* \"#utility.yul\":5936:5954   */\n      add\n        /* \"#utility.yul\":5928:5954   */\n      swap1\n      pop\n        /* \"#utility.yul\":6000:6009   */\n      dup2\n        /* \"#utility.yul\":5994:5998   */\n      dup2\n        /* \"#utility.yul\":5990:6010   */\n      sub\n        /* \"#utility.yul\":5986:5987   */\n      0x00\n        /* \"#utility.yul\":5975:5984   */\n      dup4\n        /* \"#utility.yul\":5971:5988   */\n      add\n        /* \"#utility.yul\":5964:6011   */\n      mstore\n        /* \"#utility.yul\":6028:6159   */\n      tag_154\n        /* \"#utility.yul\":6154:6158   */\n      dup2\n        /* \"#utility.yul\":6028:6159   */\n      tag_85\n      jump\t// in\n    tag_154:\n        /* \"#utility.yul\":6020:6159   */\n      swap1\n      pop\n        /* \"#utility.yul\":5747:6166   */\n      swap2\n      swap1\n      pop\n      jump\t// out\n        /* \"#utility.yul\":6172:6393   */\n    tag_86:\n        /* \"#utility.yul\":6312:6346   */\n      0x496e76616c69642063616e6469646174652049642c2077726974652031206f72\n        /* \"#utility.yul\":6308:6309   */\n      0x00\n        /* \"#utility.yul\":6300:6306   */\n      dup3\n        /* \"#utility.yul\":6296:6310   */\n      add\n        /* \"#utility.yul\":6289:6347   */\n      mstore\n        /* \"#utility.yul\":6381:6385   */\n      0x2032000000000000000000000000000000000000000000000000000000000000\n        /* \"#utility.yul\":6376:6378   */\n      0x20\n        /* \"#utility.yul\":6368:6374   */\n      dup3\n        /* \"#utility.yul\":6364:6379   */\n      add\n        /* \"#utility.yul\":6357:6386   */\n      mstore\n        /* \"#utility.yul\":6172:6393   */\n      pop\n      jump\t// out\n        /* \"#utility.yul\":6399:6765   */\n    tag_87:\n        /* \"#utility.yul\":6541:6544   */\n      0x00\n        /* \"#utility.yul\":6562:6629   */\n      tag_157\n        /* \"#utility.yul\":6626:6628   */\n      0x22\n        /* \"#utility.yul\":6621:6624   */\n      dup4\n        /* \"#utility.yul\":6562:6629   */\n      tag_81\n      jump\t// in\n    tag_157:\n        /* \"#utility.yul\":6555:6629   */\n      swap2\n      pop\n        /* \"#utility.yul\":6638:6731   */\n      tag_158\n        /* \"#utility.yul\":6727:6730   */\n      dup3\n        /* \"#utility.yul\":6638:6731   */\n      tag_86\n      jump\t// in\n    tag_158:\n        /* \"#utility.yul\":6756:6758   */\n      0x40\n        /* \"#utility.yul\":6751:6754   */\n      dup3\n        /* \"#utility.yul\":6747:6759   */\n      add\n        /* \"#utility.yul\":6740:6759   */\n      swap1\n      pop\n        /* \"#utility.yul\":6399:6765   */\n      swap2\n      swap1\n      pop\n      jump\t// out\n        /* \"#utility.yul\":6771:7190   */\n    tag_54:\n        /* \"#utility.yul\":6937:6941   */\n      0x00\n        /* \"#utility.yul\":6975:6977   */\n      0x20\n        /* \"#utility.yul\":6964:6973   */\n      dup3\n        /* \"#utility.yul\":6960:6978   */\n      add\n        /* \"#utility.yul\":6952:6978   */\n      swap1\n      pop\n        /* \"#utility.yul\":7024:7033   */\n      dup2\n        /* \"#utility.yul\":7018:7022   */\n      dup2\n        /* \"#utility.yul\":7014:7034   */\n      sub\n        /* \"#utility.yul\":7010:7011   */\n      0x00\n        /* \"#utility.yul\":6999:7008   */\n      dup4\n        /* \"#utility.yul\":6995:7012   */\n      add\n        /* \"#utility.yul\":6988:7035   */\n      mstore\n        /* \"#utility.yul\":7052:7183   */\n      tag_160\n        /* \"#utility.yul\":7178:7182   */\n      dup2\n        /* \"#utility.yul\":7052:7183   */\n      tag_87\n      jump\t// in\n    tag_160:\n        /* \"#utility.yul\":7044:7183   */\n      swap1\n      pop\n        /* \"#utility.yul\":6771:7190   */\n      swap2\n      swap1\n      pop\n      jump\t// out\n        /* \"#utility.yul\":7196:7376   */\n    tag_88:\n        /* \"#utility.yul\":7244:7321   */\n      0x4e487b7100000000000000000000000000000000000000000000000000000000\n        /* \"#utility.yul\":7241:7242   */\n      0x00\n        /* \"#utility.yul\":7234:7322   */\n      mstore\n        /* \"#utility.yul\":7341:7345   */\n      0x11\n        /* \"#utility.yul\":7338:7339   */\n      0x04\n        /* \"#utility.yul\":7331:7346   */\n      mstore\n        /* \"#utility.yul\":7365:7369   */\n      0x24\n        /* \"#utility.yul\":7362:7363   */\n      0x00\n        /* \"#utility.yul\":7355:7370   */\n      revert\n        /* \"#utility.yul\":7382:7573   */\n    tag_57:\n        /* \"#utility.yul\":7422:7425   */\n      0x00\n        /* \"#utility.yul\":7441:7461   */\n      tag_163\n        /* \"#utility.yul\":7459:7460   */\n      dup3\n        /* \"#utility.yul\":7441:7461   */\n      tag_68\n      jump\t// in\n    tag_163:\n        /* \"#utility.yul\":7436:7461   */\n      swap2\n      pop\n        /* \"#utility.yul\":7475:7495   */\n      tag_164\n        /* \"#utility.yul\":7493:7494   */\n      dup4\n        /* \"#utility.yul\":7475:7495   */\n      tag_68\n      jump\t// in\n    tag_164:\n        /* \"#utility.yul\":7470:7495   */\n      swap3\n      pop\n        /* \"#utility.yul\":7518:7519   */\n      dup3\n        /* \"#utility.yul\":7515:7516   */\n      dup3\n        /* \"#utility.yul\":7511:7520   */\n      add\n        /* \"#utility.yul\":7504:7520   */\n      swap1\n      pop\n        /* \"#utility.yul\":7539:7542   */\n      dup1\n        /* \"#utility.yul\":7536:7537   */\n      dup3\n        /* \"#utility.yul\":7533:7543   */\n      gt\n        /* \"#utility.yul\":7530:7566   */\n      iszero\n      tag_165\n      jumpi\n        /* \"#utility.yul\":7546:7564   */\n      tag_166\n      tag_88\n      jump\t// in\n    tag_166:\n        /* \"#utility.yul\":7530:7566   */\n    tag_165:\n        /* \"#utility.yul\":7382:7573   */\n      swap3\n      swap2\n      pop\n      pop\n      jump\t// out\n        /* \"#utility.yul\":7579:7820   */\n    tag_89:\n        /* \"#utility.yul\":7719:7753   */\n      0x5468652061646d696e6973747261746f722063616e206f6e6c79206368616e67\n        /* \"#utility.yul\":7715:7716   */\n      0x00\n        /* \"#utility.yul\":7707:7713   */\n      dup3\n        /* \"#utility.yul\":7703:7717   */\n      add\n        /* \"#utility.yul\":7696:7754   */\n      mstore\n        /* \"#utility.yul\":7788:7812   */\n      0x652074686520737461747573206f6620766f74696e6700000000000000000000\n        /* \"#utility.yul\":7783:7785   */\n      0x20\n        /* \"#utility.yul\":7775:7781   */\n      dup3\n        /* \"#utility.yul\":7771:7786   */\n      add\n        /* \"#utility.yul\":7764:7813   */\n      mstore\n        /* \"#utility.yul\":7579:7820   */\n      pop\n      jump\t// out\n        /* \"#utility.yul\":7826:8192   */\n    tag_90:\n        /* \"#utility.yul\":7968:7971   */\n      0x00\n        /* \"#utility.yul\":7989:8056   */\n      tag_169\n        /* \"#utility.yul\":8053:8055   */\n      0x36\n        /* \"#utility.yul\":8048:8051   */\n      dup4\n        /* \"#utility.yul\":7989:8056   */\n      tag_81\n      jump\t// in\n    tag_169:\n        /* \"#utility.yul\":7982:8056   */\n      swap2\n      pop\n        /* \"#utility.yul\":8065:8158   */\n      tag_170\n        /* \"#utility.yul\":8154:8157   */\n      dup3\n        /* \"#utility.yul\":8065:8158   */\n      tag_89\n      jump\t// in\n    tag_170:\n        /* \"#utility.yul\":8183:8185   */\n      0x40\n        /* \"#utility.yul\":8178:8181   */\n      dup3\n        /* \"#utility.yul\":8174:8186   */\n      add\n        /* \"#utility.yul\":8167:8186   */\n      swap1\n      pop\n        /* \"#utility.yul\":7826:8192   */\n      swap2\n      swap1\n      pop\n      jump\t// out\n        /* \"#utility.yul\":8198:8617   */\n    tag_64:\n        /* \"#utility.yul\":8364:8368   */\n      0x00\n        /* \"#utility.yul\":8402:8404   */\n      0x20\n        /* \"#utility.yul\":8391:8400   */\n      dup3\n        /* \"#utility.yul\":8387:8405   */\n      add\n        /* \"#utility.yul\":8379:8405   */\n      swap1\n      pop\n        /* \"#utility.yul\":8451:8460   */\n      dup2\n        /* \"#utility.yul\":8445:8449   */\n      dup2\n        /* \"#utility.yul\":8441:8461   */\n      sub\n        /* \"#utility.yul\":8437:8438   */\n      0x00\n        /* \"#utility.yul\":8426:8435   */\n      dup4\n        /* \"#utility.yul\":8422:8439   */\n      add\n        /* \"#utility.yul\":8415:8462   */\n      mstore\n        /* \"#utility.yul\":8479:8610   */\n      tag_172\n        /* \"#utility.yul\":8605:8609   */\n      dup2\n        /* \"#utility.yul\":8479:8610   */\n      tag_90\n      jump\t// in\n    tag_172:\n        /* \"#utility.yul\":8471:8610   */\n      swap1\n      pop\n        /* \"#utility.yul\":8198:8617   */\n      swap2\n      swap1\n      pop\n      jump\t// out\n\n    auxdata: 0xa2646970667358221220da5456558d4d4f7f670db25b1765dfd544c8f69cc017b754419845737221fcfe64736f6c634300081f0033\n}\n",
				"bytecode": {
					"linkReferences": {},
					"object": "6080604052348015600e575f5ffd5b50335f5f6101000a81548173ffffffffffffffffffffffffffffffffffffffff021916908373ffffffffffffffffffffffffffffffffffffffff1602179055506109228061005b5f395ff3fe608060405234801561000f575f5ffd5b5060043610610086575f3560e01c8063233faf7111610059578063233faf711461011357806345d6dc5614610131578063cc6e9d121461014f578063f851a4401461016b57610086565b80630121b93f1461008a57806309eef43e146100a65780630dc96015146100d657806320949bb4146100f5575b5f5ffd5b6100a4600480360381019061009f9190610495565b610189565b005b6100c060048036038101906100bb919061051a565b610345565b6040516100cd919061055f565b60405180910390f35b6100de610362565b6040516100ec929190610587565b60405180910390f35b6100fd610372565b60405161010a919061055f565b60405180910390f35b61011b610384565b60405161012891906105ae565b60405180910390f35b61013961038a565b60405161014691906105ae565b60405180910390f35b610169600480360381019061016491906105f1565b610390565b005b61017361043a565b604051610180919061062b565b60405180910390f35b600115155f60149054906101000a900460ff161515146101de576040517f08c379a00000000000000000000000000000000000000000000000000000000081526004016101d5906106ea565b60405180910390fd5b60035f3373ffffffffffffffffffffffffffffffffffffffff1673ffffffffffffffffffffffffffffffffffffffff1681526020019081526020015f205f9054906101000a900460ff1615610268576040517f08c379a000000000000000000000000000000000000000000000000000000000815260040161025f90610752565b60405180910390fd5b60018114806102775750600281145b6102b6576040517f08c379a00000000000000000000000000000000000000000000000000000000081526004016102ad906107e0565b60405180910390fd5b600160035f3373ffffffffffffffffffffffffffffffffffffffff1673ffffffffffffffffffffffffffffffffffffffff1681526020019081526020015f205f6101000a81548160ff0219169083151502179055506001810361032c5760018054610321919061082b565b600181905550610342565b600160025461033b919061082b565b6002819055505b50565b6003602052805f5260405f205f915054906101000a900460ff1681565b5f5f600154600254915091509091565b5f60149054906101000a900460ff1681565b60015481565b60025481565b5f5f9054906101000a900473ffffffffffffffffffffffffffffffffffffffff1673ffffffffffffffffffffffffffffffffffffffff163373ffffffffffffffffffffffffffffffffffffffff161461041e576040517f08c379a0000000000000000000000000000000000000000000000000000000008152600401610415906108ce565b60405180910390fd5b805f60146101000a81548160ff02191690831515021790555050565b5f5f9054906101000a900473ffffffffffffffffffffffffffffffffffffffff1681565b5f5ffd5b5f819050919050565b61047481610462565b811461047e575f5ffd5b50565b5f8135905061048f8161046b565b92915050565b5f602082840312156104aa576104a961045e565b5b5f6104b784828501610481565b91505092915050565b5f73ffffffffffffffffffffffffffffffffffffffff82169050919050565b5f6104e9826104c0565b9050919050565b6104f9816104df565b8114610503575f5ffd5b50565b5f81359050610514816104f0565b92915050565b5f6020828403121561052f5761052e61045e565b5b5f61053c84828501610506565b91505092915050565b5f8115159050919050565b61055981610545565b82525050565b5f6020820190506105725f830184610550565b92915050565b61058181610462565b82525050565b5f60408201905061059a5f830185610578565b6105a76020830184610578565b9392505050565b5f6020820190506105c15f830184610578565b92915050565b6105d081610545565b81146105da575f5ffd5b50565b5f813590506105eb816105c7565b92915050565b5f602082840312156106065761060561045e565b5b5f610613848285016105dd565b91505092915050565b610625816104df565b82525050565b5f60208201905061063e5f83018461061c565b92915050565b5f82825260208201905092915050565b7f566f74696e672069732063757272656e746c7920636c6f7365642e20506c65615f8201527f7365207761697420666f72207468652061646d696e20746f207377697463682060208201527f6974206f6e000000000000000000000000000000000000000000000000000000604082015250565b5f6106d4604583610644565b91506106df82610654565b606082019050919050565b5f6020820190508181035f830152610701816106c8565b9050919050565b7f596f75206861766520616c726561647920766f746564000000000000000000005f82015250565b5f61073c601683610644565b915061074782610708565b602082019050919050565b5f6020820190508181035f83015261076981610730565b9050919050565b7f496e76616c69642063616e6469646174652049642c2077726974652031206f725f8201527f2032000000000000000000000000000000000000000000000000000000000000602082015250565b5f6107ca602283610644565b91506107d582610770565b604082019050919050565b5f6020820190508181035f8301526107f7816107be565b9050919050565b7f4e487b71000000000000000000000000000000000000000000000000000000005f52601160045260245ffd5b5f61083582610462565b915061084083610462565b9250828201905080821115610858576108576107fe565b5b92915050565b7f5468652061646d696e6973747261746f722063616e206f6e6c79206368616e675f8201527f652074686520737461747573206f6620766f74696e6700000000000000000000602082015250565b5f6108b8603683610644565b91506108c38261085e565b604082019050919050565b5f6020820190508181035f8301526108e5816108ac565b905091905056fea2646970667358221220da5456558d4d4f7f670db25b1765dfd544c8f69cc017b754419845737221fcfe64736f6c634300081f0033",
					"opcodes": "PUSH1 0x80 PUSH1 0x40 MSTORE CALLVALUE DUP1 ISZERO PUSH1 0xE JUMPI PUSH0 PUSH0 REVERT JUMPDEST POP CALLER PUSH0 PUSH0 PUSH2 0x100 EXP DUP2 SLOAD DUP2 PUSH20 0xFFFFFFFFFFFFFFFFFFFFFFFFFFFFFFFFFFFFFFFF MUL NOT AND SWAP1 DUP4 PUSH20 0xFFFFFFFFFFFFFFFFFFFFFFFFFFFFFFFFFFFFFFFF AND MUL OR SWAP1 SSTORE POP PUSH2 0x922 DUP1 PUSH2 0x5B PUSH0 CODECOPY PUSH0 RETURN INVALID PUSH1 0x80 PUSH1 0x40 MSTORE CALLVALUE DUP1 ISZERO PUSH2 0xF JUMPI PUSH0 PUSH0 REVERT JUMPDEST POP PUSH1 0x4 CALLDATASIZE LT PUSH2 0x86 JUMPI PUSH0 CALLDATALOAD PUSH1 0xE0 SHR DUP1 PUSH4 0x233FAF71 GT PUSH2 0x59 JUMPI DUP1 PUSH4 0x233FAF71 EQ PUSH2 0x113 JUMPI DUP1 PUSH4 0x45D6DC56 EQ PUSH2 0x131 JUMPI DUP1 PUSH4 0xCC6E9D12 EQ PUSH2 0x14F JUMPI DUP1 PUSH4 0xF851A440 EQ PUSH2 0x16B JUMPI PUSH2 0x86 JUMP JUMPDEST DUP1 PUSH4 0x121B93F EQ PUSH2 0x8A JUMPI DUP1 PUSH4 0x9EEF43E EQ PUSH2 0xA6 JUMPI DUP1 PUSH4 0xDC96015 EQ PUSH2 0xD6 JUMPI DUP1 PUSH4 0x20949BB4 EQ PUSH2 0xF5 JUMPI JUMPDEST PUSH0 PUSH0 REVERT JUMPDEST PUSH2 0xA4 PUSH1 0x4 DUP1 CALLDATASIZE SUB DUP2 ADD SWAP1 PUSH2 0x9F SWAP2 SWAP1 PUSH2 0x495 JUMP JUMPDEST PUSH2 0x189 JUMP JUMPDEST STOP JUMPDEST PUSH2 0xC0 PUSH1 0x4 DUP1 CALLDATASIZE SUB DUP2 ADD SWAP1 PUSH2 0xBB SWAP2 SWAP1 PUSH2 0x51A JUMP JUMPDEST PUSH2 0x345 JUMP JUMPDEST PUSH1 0x40 MLOAD PUSH2 0xCD SWAP2 SWAP1 PUSH2 0x55F JUMP JUMPDEST PUSH1 0x40 MLOAD DUP1 SWAP2 SUB SWAP1 RETURN JUMPDEST PUSH2 0xDE PUSH2 0x362 JUMP JUMPDEST PUSH1 0x40 MLOAD PUSH2 0xEC SWAP3 SWAP2 SWAP1 PUSH2 0x587 JUMP JUMPDEST PUSH1 0x40 MLOAD DUP1 SWAP2 SUB SWAP1 RETURN JUMPDEST PUSH2 0xFD PUSH2 0x372 JUMP JUMPDEST PUSH1 0x40 MLOAD PUSH2 0x10A SWAP2 SWAP1 PUSH2 0x55F JUMP JUMPDEST PUSH1 0x40 MLOAD DUP1 SWAP2 SUB SWAP1 RETURN JUMPDEST PUSH2 0x11B PUSH2 0x384 JUMP JUMPDEST PUSH1 0x40 MLOAD PUSH2 0x128 SWAP2 SWAP1 PUSH2 0x5AE JUMP JUMPDEST PUSH1 0x40 MLOAD DUP1 SWAP2 SUB SWAP1 RETURN JUMPDEST PUSH2 0x139 PUSH2 0x38A JUMP JUMPDEST PUSH1 0x40 MLOAD PUSH2 0x146 SWAP2 SWAP1 PUSH2 0x5AE JUMP JUMPDEST PUSH1 0x40 MLOAD DUP1 SWAP2 SUB SWAP1 RETURN JUMPDEST PUSH2 0x169 PUSH1 0x4 DUP1 CALLDATASIZE SUB DUP2 ADD SWAP1 PUSH2 0x164 SWAP2 SWAP1 PUSH2 0x5F1 JUMP JUMPDEST PUSH2 0x390 JUMP JUMPDEST STOP JUMPDEST PUSH2 0x173 PUSH2 0x43A JUMP JUMPDEST PUSH1 0x40 MLOAD PUSH2 0x180 SWAP2 SWAP1 PUSH2 0x62B JUMP JUMPDEST PUSH1 0x40 MLOAD DUP1 SWAP2 SUB SWAP1 RETURN JUMPDEST PUSH1 0x1 ISZERO ISZERO PUSH0 PUSH1 0x14 SWAP1 SLOAD SWAP1 PUSH2 0x100 EXP SWAP1 DIV PUSH1 0xFF AND ISZERO ISZERO EQ PUSH2 0x1DE JUMPI PUSH1 0x40 MLOAD PUSH32 0x8C379A000000000000000000000000000000000000000000000000000000000 DUP2 MSTORE PUSH1 0x4 ADD PUSH2 0x1D5 SWAP1 PUSH2 0x6EA JUMP JUMPDEST PUSH1 0x40 MLOAD DUP1 SWAP2 SUB SWAP1 REVERT JUMPDEST PUSH1 0x3 PUSH0 CALLER PUSH20 0xFFFFFFFFFFFFFFFFFFFFFFFFFFFFFFFFFFFFFFFF AND PUSH20 0xFFFFFFFFFFFFFFFFFFFFFFFFFFFFFFFFFFFFFFFF AND DUP2 MSTORE PUSH1 0x20 ADD SWAP1 DUP2 MSTORE PUSH1 0x20 ADD PUSH0 KECCAK256 PUSH0 SWAP1 SLOAD SWAP1 PUSH2 0x100 EXP SWAP1 DIV PUSH1 0xFF AND ISZERO PUSH2 0x268 JUMPI PUSH1 0x40 MLOAD PUSH32 0x8C379A000000000000000000000000000000000000000000000000000000000 DUP2 MSTORE PUSH1 0x4 ADD PUSH2 0x25F SWAP1 PUSH2 0x752 JUMP JUMPDEST PUSH1 0x40 MLOAD DUP1 SWAP2 SUB SWAP1 REVERT JUMPDEST PUSH1 0x1 DUP2 EQ DUP1 PUSH2 0x277 JUMPI POP PUSH1 0x2 DUP2 EQ JUMPDEST PUSH2 0x2B6 JUMPI PUSH1 0x40 MLOAD PUSH32 0x8C379A000000000000000000000000000000000000000000000000000000000 DUP2 MSTORE PUSH1 0x4 ADD PUSH2 0x2AD SWAP1 PUSH2 0x7E0 JUMP JUMPDEST PUSH1 0x40 MLOAD DUP1 SWAP2 SUB SWAP1 REVERT JUMPDEST PUSH1 0x1 PUSH1 0x3 PUSH0 CALLER PUSH20 0xFFFFFFFFFFFFFFFFFFFFFFFFFFFFFFFFFFFFFFFF AND PUSH20 0xFFFFFFFFFFFFFFFFFFFFFFFFFFFFFFFFFFFFFFFF AND DUP2 MSTORE PUSH1 0x20 ADD SWAP1 DUP2 MSTORE PUSH1 0x20 ADD PUSH0 KECCAK256 PUSH0 PUSH2 0x100 EXP DUP2 SLOAD DUP2 PUSH1 0xFF MUL NOT AND SWAP1 DUP4 ISZERO ISZERO MUL OR SWAP1 SSTORE POP PUSH1 0x1 DUP2 SUB PUSH2 0x32C JUMPI PUSH1 0x1 DUP1 SLOAD PUSH2 0x321 SWAP2 SWAP1 PUSH2 0x82B JUMP JUMPDEST PUSH1 0x1 DUP2 SWAP1 SSTORE POP PUSH2 0x342 JUMP JUMPDEST PUSH1 0x1 PUSH1 0x2 SLOAD PUSH2 0x33B SWAP2 SWAP1 PUSH2 0x82B JUMP JUMPDEST PUSH1 0x2 DUP2 SWAP1 SSTORE POP JUMPDEST POP JUMP JUMPDEST PUSH1 0x3 PUSH1 0x20 MSTORE DUP1 PUSH0 MSTORE PUSH1 0x40 PUSH0 KECCAK256 PUSH0 SWAP2 POP SLOAD SWAP1 PUSH2 0x100 EXP SWAP1 DIV PUSH1 0xFF AND DUP2 JUMP JUMPDEST PUSH0 PUSH0 PUSH1 0x1 SLOAD PUSH1 0x2 SLOAD SWAP2 POP SWAP2 POP SWAP1 SWAP2 JUMP JUMPDEST PUSH0 PUSH1 0x14 SWAP1 SLOAD SWAP1 PUSH2 0x100 EXP SWAP1 DIV PUSH1 0xFF AND DUP2 JUMP JUMPDEST PUSH1 0x1 SLOAD DUP2 JUMP JUMPDEST PUSH1 0x2 SLOAD DUP2 JUMP JUMPDEST PUSH0 PUSH0 SWAP1 SLOAD SWAP1 PUSH2 0x100 EXP SWAP1 DIV PUSH20 0xFFFFFFFFFFFFFFFFFFFFFFFFFFFFFFFFFFFFFFFF AND PUSH20 0xFFFFFFFFFFFFFFFFFFFFFFFFFFFFFFFFFFFFFFFF AND CALLER PUSH20 0xFFFFFFFFFFFFFFFFFFFFFFFFFFFFFFFFFFFFFFFF AND EQ PUSH2 0x41E JUMPI PUSH1 0x40 MLOAD PUSH32 0x8C379A000000000000000000000000000000000000000000000000000000000 DUP2 MSTORE PUSH1 0x4 ADD PUSH2 0x415 SWAP1 PUSH2 0x8CE JUMP JUMPDEST PUSH1 0x40 MLOAD DUP1 SWAP2 SUB SWAP1 REVERT JUMPDEST DUP1 PUSH0 PUSH1 0x14 PUSH2 0x100 EXP DUP2 SLOAD DUP2 PUSH1 0xFF MUL NOT AND SWAP1 DUP4 ISZERO ISZERO MUL OR SWAP1 SSTORE POP POP JUMP JUMPDEST PUSH0 PUSH0 SWAP1 SLOAD SWAP1 PUSH2 0x100 EXP SWAP1 DIV PUSH20 0xFFFFFFFFFFFFFFFFFFFFFFFFFFFFFFFFFFFFFFFF AND DUP2 JUMP JUMPDEST PUSH0 PUSH0 REVERT JUMPDEST PUSH0 DUP2 SWAP1 POP SWAP2 SWAP1 POP JUMP JUMPDEST PUSH2 0x474 DUP2 PUSH2 0x462 JUMP JUMPDEST DUP2 EQ PUSH2 0x47E JUMPI PUSH0 PUSH0 REVERT JUMPDEST POP JUMP JUMPDEST PUSH0 DUP2 CALLDATALOAD SWAP1 POP PUSH2 0x48F DUP2 PUSH2 0x46B JUMP JUMPDEST SWAP3 SWAP2 POP POP JUMP JUMPDEST PUSH0 PUSH1 0x20 DUP3 DUP5 SUB SLT ISZERO PUSH2 0x4AA JUMPI PUSH2 0x4A9 PUSH2 0x45E JUMP JUMPDEST JUMPDEST PUSH0 PUSH2 0x4B7 DUP5 DUP3 DUP6 ADD PUSH2 0x481 JUMP JUMPDEST SWAP2 POP POP SWAP3 SWAP2 POP POP JUMP JUMPDEST PUSH0 PUSH20 0xFFFFFFFFFFFFFFFFFFFFFFFFFFFFFFFFFFFFFFFF DUP3 AND SWAP1 POP SWAP2 SWAP1 POP JUMP JUMPDEST PUSH0 PUSH2 0x4E9 DUP3 PUSH2 0x4C0 JUMP JUMPDEST SWAP1 POP SWAP2 SWAP1 POP JUMP JUMPDEST PUSH2 0x4F9 DUP2 PUSH2 0x4DF JUMP JUMPDEST DUP2 EQ PUSH2 0x503 JUMPI PUSH0 PUSH0 REVERT JUMPDEST POP JUMP JUMPDEST PUSH0 DUP2 CALLDATALOAD SWAP1 POP PUSH2 0x514 DUP2 PUSH2 0x4F0 JUMP JUMPDEST SWAP3 SWAP2 POP POP JUMP JUMPDEST PUSH0 PUSH1 0x20 DUP3 DUP5 SUB SLT ISZERO PUSH2 0x52F JUMPI PUSH2 0x52E PUSH2 0x45E JUMP JUMPDEST JUMPDEST PUSH0 PUSH2 0x53C DUP5 DUP3 DUP6 ADD PUSH2 0x506 JUMP JUMPDEST SWAP2 POP POP SWAP3 SWAP2 POP POP JUMP JUMPDEST PUSH0 DUP2 ISZERO ISZERO SWAP1 POP SWAP2 SWAP1 POP JUMP JUMPDEST PUSH2 0x559 DUP2 PUSH2 0x545 JUMP JUMPDEST DUP3 MSTORE POP POP JUMP JUMPDEST PUSH0 PUSH1 0x20 DUP3 ADD SWAP1 POP PUSH2 0x572 PUSH0 DUP4 ADD DUP5 PUSH2 0x550 JUMP JUMPDEST SWAP3 SWAP2 POP POP JUMP JUMPDEST PUSH2 0x581 DUP2 PUSH2 0x462 JUMP JUMPDEST DUP3 MSTORE POP POP JUMP JUMPDEST PUSH0 PUSH1 0x40 DUP3 ADD SWAP1 POP PUSH2 0x59A PUSH0 DUP4 ADD DUP6 PUSH2 0x578 JUMP JUMPDEST PUSH2 0x5A7 PUSH1 0x20 DUP4 ADD DUP5 PUSH2 0x578 JUMP JUMPDEST SWAP4 SWAP3 POP POP POP JUMP JUMPDEST PUSH0 PUSH1 0x20 DUP3 ADD SWAP1 POP PUSH2 0x5C1 PUSH0 DUP4 ADD DUP5 PUSH2 0x578 JUMP JUMPDEST SWAP3 SWAP2 POP POP JUMP JUMPDEST PUSH2 0x5D0 DUP2 PUSH2 0x545 JUMP JUMPDEST DUP2 EQ PUSH2 0x5DA JUMPI PUSH0 PUSH0 REVERT JUMPDEST POP JUMP JUMPDEST PUSH0 DUP2 CALLDATALOAD SWAP1 POP PUSH2 0x5EB DUP2 PUSH2 0x5C7 JUMP JUMPDEST SWAP3 SWAP2 POP POP JUMP JUMPDEST PUSH0 PUSH1 0x20 DUP3 DUP5 SUB SLT ISZERO PUSH2 0x606 JUMPI PUSH2 0x605 PUSH2 0x45E JUMP JUMPDEST JUMPDEST PUSH0 PUSH2 0x613 DUP5 DUP3 DUP6 ADD PUSH2 0x5DD JUMP JUMPDEST SWAP2 POP POP SWAP3 SWAP2 POP POP JUMP JUMPDEST PUSH2 0x625 DUP2 PUSH2 0x4DF JUMP JUMPDEST DUP3 MSTORE POP POP JUMP JUMPDEST PUSH0 PUSH1 0x20 DUP3 ADD SWAP1 POP PUSH2 0x63E PUSH0 DUP4 ADD DUP5 PUSH2 0x61C JUMP JUMPDEST SWAP3 SWAP2 POP POP JUMP JUMPDEST PUSH0 DUP3 DUP3 MSTORE PUSH1 0x20 DUP3 ADD SWAP1 POP SWAP3 SWAP2 POP POP JUMP JUMPDEST PUSH32 0x566F74696E672069732063757272656E746C7920636C6F7365642E20506C6561 PUSH0 DUP3 ADD MSTORE PUSH32 0x7365207761697420666F72207468652061646D696E20746F2073776974636820 PUSH1 0x20 DUP3 ADD MSTORE PUSH32 0x6974206F6E000000000000000000000000000000000000000000000000000000 PUSH1 0x40 DUP3 ADD MSTORE POP JUMP JUMPDEST PUSH0 PUSH2 0x6D4 PUSH1 0x45 DUP4 PUSH2 0x644 JUMP JUMPDEST SWAP2 POP PUSH2 0x6DF DUP3 PUSH2 0x654 JUMP JUMPDEST PUSH1 0x60 DUP3 ADD SWAP1 POP SWAP2 SWAP1 POP JUMP JUMPDEST PUSH0 PUSH1 0x20 DUP3 ADD SWAP1 POP DUP2 DUP2 SUB PUSH0 DUP4 ADD MSTORE PUSH2 0x701 DUP2 PUSH2 0x6C8 JUMP JUMPDEST SWAP1 POP SWAP2 SWAP1 POP JUMP JUMPDEST PUSH32 0x596F75206861766520616C726561647920766F74656400000000000000000000 PUSH0 DUP3 ADD MSTORE POP JUMP JUMPDEST PUSH0 PUSH2 0x73C PUSH1 0x16 DUP4 PUSH2 0x644 JUMP JUMPDEST SWAP2 POP PUSH2 0x747 DUP3 PUSH2 0x708 JUMP JUMPDEST PUSH1 0x20 DUP3 ADD SWAP1 POP SWAP2 SWAP1 POP JUMP JUMPDEST PUSH0 PUSH1 0x20 DUP3 ADD SWAP1 POP DUP2 DUP2 SUB PUSH0 DUP4 ADD MSTORE PUSH2 0x769 DUP2 PUSH2 0x730 JUMP JUMPDEST SWAP1 POP SWAP2 SWAP1 POP JUMP JUMPDEST PUSH32 0x496E76616C69642063616E6469646174652049642C2077726974652031206F72 PUSH0 DUP3 ADD MSTORE PUSH32 0x2032000000000000000000000000000000000000000000000000000000000000 PUSH1 0x20 DUP3 ADD MSTORE POP JUMP JUMPDEST PUSH0 PUSH2 0x7CA PUSH1 0x22 DUP4 PUSH2 0x644 JUMP JUMPDEST SWAP2 POP PUSH2 0x7D5 DUP3 PUSH2 0x770 JUMP JUMPDEST PUSH1 0x40 DUP3 ADD SWAP1 POP SWAP2 SWAP1 POP JUMP JUMPDEST PUSH0 PUSH1 0x20 DUP3 ADD SWAP1 POP DUP2 DUP2 SUB PUSH0 DUP4 ADD MSTORE PUSH2 0x7F7 DUP2 PUSH2 0x7BE JUMP JUMPDEST SWAP1 POP SWAP2 SWAP1 POP JUMP JUMPDEST PUSH32 0x4E487B7100000000000000000000000000000000000000000000000000000000 PUSH0 MSTORE PUSH1 0x11 PUSH1 0x4 MSTORE PUSH1 0x24 PUSH0 REVERT JUMPDEST PUSH0 PUSH2 0x835 DUP3 PUSH2 0x462 JUMP JUMPDEST SWAP2 POP PUSH2 0x840 DUP4 PUSH2 0x462 JUMP JUMPDEST SWAP3 POP DUP3 DUP3 ADD SWAP1 POP DUP1 DUP3 GT ISZERO PUSH2 0x858 JUMPI PUSH2 0x857 PUSH2 0x7FE JUMP JUMPDEST JUMPDEST SWAP3 SWAP2 POP POP JUMP JUMPDEST PUSH32 0x5468652061646D696E6973747261746F722063616E206F6E6C79206368616E67 PUSH0 DUP3 ADD MSTORE PUSH32 0x652074686520737461747573206F6620766F74696E6700000000000000000000 PUSH1 0x20 DUP3 ADD MSTORE POP JUMP JUMPDEST PUSH0 PUSH2 0x8B8 PUSH1 0x36 DUP4 PUSH2 0x644 JUMP JUMPDEST SWAP2 POP PUSH2 0x8C3 DUP3 PUSH2 0x85E JUMP JUMPDEST PUSH1 0x40 DUP3 ADD SWAP1 POP SWAP2 SWAP1 POP JUMP JUMPDEST PUSH0 PUSH1 0x20 DUP3 ADD SWAP1 POP DUP2 DUP2 SUB PUSH0 DUP4 ADD MSTORE PUSH2 0x8E5 DUP2 PUSH2 0x8AC JUMP JUMPDEST SWAP1 POP SWAP2 SWAP1 POP JUMP INVALID LOG2 PUSH5 0x6970667358 0x22 SLT KECCAK256 0xDA SLOAD JUMP SSTORE DUP14 0x4D 0x4F PUSH32 0x670DB25B1765DFD544C8F69CC017B754419845737221FCFE64736F6C63430008 0x1F STOP CALLER "
				},
				"gasEstimates": {
					"creation": {
						"codeDepositCost": "467600",
						"executionCost": "24767",
						"totalCost": "492367"
					},
					"external": {
						"Candidate1votes()": "2425",
						"Candidate2votes()": "2447",
						"admin()": "2573",
						"getVotes()": "infinite",
						"hasVoted(address)": "2856",
						"vote(uint256)": "infinite",
						"votingOn()": "2583",
						"votingStatus(bool)": "26935"
					}
				},
				"methodIdentifiers": {
					"Candidate1votes()": "233faf71",
					"Candidate2votes()": "45d6dc56",
					"admin()": "f851a440",
					"getVotes()": "0dc96015",
					"hasVoted(address)": "09eef43e",
					"vote(uint256)": "0121b93f",
					"votingOn()": "20949bb4",
					"votingStatus(bool)": "cc6e9d12"
				}
			},
			"storageLayout": {
				"storage": [
					{
						"astId": 3,
						"contract": "Voting.sol:voting",
						"label": "admin",
						"offset": 0,
						"slot": "0",
						"type": "t_address"
					},
					{
						"astId": 5,
						"contract": "Voting.sol:voting",
						"label": "votingOn",
						"offset": 20,
						"slot": "0",
						"type": "t_bool"
					},
					{
						"astId": 16,
						"contract": "Voting.sol:voting",
						"label": "Candidate1votes",
						"offset": 0,
						"slot": "1",
						"type": "t_uint256"
					},
					{
						"astId": 18,
						"contract": "Voting.sol:voting",
						"label": "Candidate2votes",
						"offset": 0,
						"slot": "2",
						"type": "t_uint256"
					},
					{
						"astId": 22,
						"contract": "Voting.sol:voting",
						"label": "hasVoted",
						"offset": 0,
						"slot": "3",
						"type": "t_mapping(t_address,t_bool)"
					}
				],
				"types": {
					"t_address": {
						"encoding": "inplace",
						"label": "address",
						"numberOfBytes": "20"
					},
					"t_bool": {
						"encoding": "inplace",
						"label": "bool",
						"numberOfBytes": "1"
					},
					"t_mapping(t_address,t_bool)": {
						"encoding": "mapping",
						"key": "t_address",
						"label": "mapping(address => bool)",
						"numberOfBytes": "32",
						"value": "t_bool"
					},
					"t_uint256": {
						"encoding": "inplace",
						"label": "uint256",
						"numberOfBytes": "32"
					}
				}
			},
			"userdoc": {
				"kind": "user",
				"methods": {},
				"version": 1
			}
		}
	}
}